{
  "contractName": "Angellocks",
  "abi": [
    {
      "inputs": [],
      "payable": false,
      "stateMutability": "nonpayable",
      "type": "constructor"
    },
    {
      "constant": true,
      "inputs": [
        {
          "internalType": "uint256",
          "name": "",
          "type": "uint256"
        }
      ],
      "name": "donation_details",
      "outputs": [
        {
          "internalType": "uint256",
          "name": "id",
          "type": "uint256"
        },
        {
          "internalType": "address",
          "name": "org_address",
          "type": "address"
        },
        {
          "internalType": "address",
          "name": "donor_address",
          "type": "address"
        },
        {
          "internalType": "uint256",
          "name": "status",
          "type": "uint256"
        },
        {
          "internalType": "string",
          "name": "date",
          "type": "string"
        }
      ],
      "payable": false,
      "stateMutability": "view",
      "type": "function"
    },
    {
      "constant": true,
      "inputs": [
        {
          "internalType": "uint256",
          "name": "",
          "type": "uint256"
        }
      ],
      "name": "donor_details",
      "outputs": [
        {
          "internalType": "uint256",
          "name": "length",
          "type": "uint256"
        },
        {
          "internalType": "bool",
          "name": "gray",
          "type": "bool"
        },
        {
          "internalType": "bool",
          "name": "colored",
          "type": "bool"
        },
        {
          "internalType": "string",
          "name": "texture",
          "type": "string"
        },
        {
          "internalType": "bool",
          "name": "isActive",
          "type": "bool"
        }
      ],
      "payable": false,
      "stateMutability": "view",
      "type": "function"
    },
    {
      "constant": true,
      "inputs": [
        {
          "internalType": "address",
          "name": "",
          "type": "address"
        }
      ],
      "name": "donor_mapping",
      "outputs": [
        {
          "internalType": "uint256",
          "name": "length",
          "type": "uint256"
        },
        {
          "internalType": "bool",
          "name": "gray",
          "type": "bool"
        },
        {
          "internalType": "bool",
          "name": "colored",
          "type": "bool"
        },
        {
          "internalType": "string",
          "name": "texture",
          "type": "string"
        },
        {
          "internalType": "bool",
          "name": "isActive",
          "type": "bool"
        }
      ],
      "payable": false,
      "stateMutability": "view",
      "type": "function"
    },
    {
      "constant": true,
      "inputs": [
        {
          "internalType": "uint256",
          "name": "",
          "type": "uint256"
        }
      ],
      "name": "org_details",
      "outputs": [
        {
          "internalType": "address",
          "name": "org_address",
          "type": "address"
        },
        {
          "internalType": "uint256",
          "name": "length",
          "type": "uint256"
        },
        {
          "internalType": "bool",
          "name": "gray",
          "type": "bool"
        },
        {
          "internalType": "bool",
          "name": "colored",
          "type": "bool"
        },
        {
          "internalType": "bool",
          "name": "straight",
          "type": "bool"
        },
        {
          "internalType": "bool",
          "name": "curly",
          "type": "bool"
        },
        {
          "internalType": "bool",
          "name": "wavy",
          "type": "bool"
        },
        {
          "internalType": "bool",
          "name": "isActive",
          "type": "bool"
        }
      ],
      "payable": false,
      "stateMutability": "view",
      "type": "function"
    },
    {
      "constant": true,
      "inputs": [
        {
          "internalType": "address",
          "name": "",
          "type": "address"
        }
      ],
      "name": "org_mapping",
      "outputs": [
        {
          "internalType": "address",
          "name": "org_address",
          "type": "address"
        },
        {
          "internalType": "uint256",
          "name": "length",
          "type": "uint256"
        },
        {
          "internalType": "bool",
          "name": "gray",
          "type": "bool"
        },
        {
          "internalType": "bool",
          "name": "colored",
          "type": "bool"
        },
        {
          "internalType": "bool",
          "name": "straight",
          "type": "bool"
        },
        {
          "internalType": "bool",
          "name": "curly",
          "type": "bool"
        },
        {
          "internalType": "bool",
          "name": "wavy",
          "type": "bool"
        },
        {
          "internalType": "bool",
          "name": "isActive",
          "type": "bool"
        }
      ],
      "payable": false,
      "stateMutability": "view",
      "type": "function"
    },
    {
      "constant": false,
      "inputs": [
        {
          "internalType": "bool",
          "name": "_type",
          "type": "bool"
        },
        {
          "internalType": "bool",
          "name": "gray",
          "type": "bool"
        },
        {
          "internalType": "bool",
          "name": "colored",
          "type": "bool"
        },
        {
          "internalType": "uint256",
          "name": "length",
          "type": "uint256"
        },
        {
          "internalType": "bool",
          "name": "wavy",
          "type": "bool"
        },
        {
          "internalType": "bool",
          "name": "curly",
          "type": "bool"
        },
        {
          "internalType": "bool",
          "name": "straight",
          "type": "bool"
        }
      ],
      "name": "register",
      "outputs": [],
      "payable": false,
      "stateMutability": "nonpayable",
      "type": "function"
    },
    {
      "constant": true,
      "inputs": [
        {
          "internalType": "address",
          "name": "donor_id",
          "type": "address"
        }
      ],
      "name": "match_org",
      "outputs": [
        {
          "internalType": "address[]",
          "name": "",
          "type": "address[]"
        }
      ],
      "payable": false,
      "stateMutability": "view",
      "type": "function"
    },
    {
      "constant": false,
      "inputs": [
        {
          "internalType": "address",
          "name": "org_address",
          "type": "address"
        },
        {
          "internalType": "address",
          "name": "donor_address",
          "type": "address"
        },
        {
          "internalType": "string",
          "name": "date",
          "type": "string"
        }
      ],
      "name": "donate",
      "outputs": [],
      "payable": false,
      "stateMutability": "nonpayable",
      "type": "function"
    },
    {
      "constant": true,
      "inputs": [
        {
          "internalType": "address",
          "name": "donor_id",
          "type": "address"
        }
      ],
      "name": "view_donation_status",
      "outputs": [
        {
          "internalType": "address[]",
          "name": "",
          "type": "address[]"
        },
        {
          "internalType": "uint256[]",
          "name": "",
          "type": "uint256[]"
        }
      ],
      "payable": false,
      "stateMutability": "view",
      "type": "function"
    },
    {
      "constant": true,
      "inputs": [
        {
          "internalType": "address",
          "name": "org_id",
          "type": "address"
        }
      ],
      "name": "view_donations",
      "outputs": [
        {
          "internalType": "uint256[]",
          "name": "",
          "type": "uint256[]"
        }
      ],
      "payable": false,
      "stateMutability": "view",
      "type": "function"
    },
    {
      "constant": false,
      "inputs": [
        {
          "internalType": "uint256",
          "name": "id",
          "type": "uint256"
        },
        {
          "internalType": "uint256",
          "name": "status",
          "type": "uint256"
        }
      ],
      "name": "update_donation_status",
      "outputs": [],
      "payable": false,
      "stateMutability": "nonpayable",
      "type": "function"
    },
    {
      "constant": true,
      "inputs": [],
      "name": "getDonorCount",
      "outputs": [
        {
          "internalType": "uint256",
          "name": "",
          "type": "uint256"
        }
      ],
      "payable": false,
      "stateMutability": "view",
      "type": "function"
    },
    {
      "constant": true,
      "inputs": [],
      "name": "getOrgCount",
      "outputs": [
        {
          "internalType": "uint256",
          "name": "",
          "type": "uint256"
        }
      ],
      "payable": false,
      "stateMutability": "view",
      "type": "function"
    },
    {
      "constant": true,
      "inputs": [],
      "name": "getDonationsCount",
      "outputs": [
        {
          "internalType": "uint256",
          "name": "",
          "type": "uint256"
        }
      ],
      "payable": false,
      "stateMutability": "view",
      "type": "function"
    },
    {
      "constant": false,
      "inputs": [],
      "name": "closeContract",
      "outputs": [],
      "payable": false,
      "stateMutability": "nonpayable",
      "type": "function"
    }
  ],
  "bytecode": "0x608060405234801561001057600080fd5b5033600360006101000a81548173ffffffffffffffffffffffffffffffffffffffff021916908373ffffffffffffffffffffffffffffffffffffffff1602179055506000808190555060006001819055506000600281905550612356806100786000396000f3fe608060405234801561001057600080fd5b50600436106100f55760003560e01c80638f80c93911610097578063e12f452f11610066578063e12f452f1461061f578063e991fda7146106ec578063e9ed0332146107e7578063fe16bcb5146108b6576100f5565b80638f80c939146103c9578063a432e31114610401578063c93527d81461051c578063d375a1ba1461053a576100f5565b80635e206f32116100d35780635e206f3214610292578063610be6541461030857806369bc2f1e1461031257806378b8bf4c14610330576100f5565b80630cce627e146100fa5780631234fdf41461019357806323d2625314610274575b600080fd5b61013c6004803603602081101561011057600080fd5b81019080803573ffffffffffffffffffffffffffffffffffffffff16906020019092919050505061096d565b6040518080602001828103825283818151815260200191508051906020019060200280838360005b8381101561017f578082015181840152602081019050610164565b505050509050019250505060405180910390f35b6101d5600480360360208110156101a957600080fd5b81019080803573ffffffffffffffffffffffffffffffffffffffff169060200190929190505050611110565b604051808060200180602001838103835285818151815260200191508051906020019060200280838360005b8381101561021c578082015181840152602081019050610201565b50505050905001838103825284818151815260200191508051906020019060200280838360005b8381101561025e578082015181840152602081019050610243565b5050505090500194505050505060405180910390f35b61027c611342565b6040518082815260200191505060405180910390f35b610306600480360360e08110156102a857600080fd5b810190808035151590602001909291908035151590602001909291908035151590602001909291908035906020019092919080351515906020019092919080351515906020019092919080351515906020019092919050505061134c565b005b6103106118f6565b005b61031a61198b565b6040518082815260200191505060405180910390f35b6103726004803603602081101561034657600080fd5b81019080803573ffffffffffffffffffffffffffffffffffffffff169060200190929190505050611994565b6040518080602001828103825283818151815260200191508051906020019060200280838360005b838110156103b557808201518184015260208101905061039a565b505050509050019250505060405180910390f35b6103ff600480360360408110156103df57600080fd5b810190808035906020019092919080359060200190929190505050611b06565b005b61042d6004803603602081101561041757600080fd5b8101908080359060200190929190505050611b2d565b604051808681526020018573ffffffffffffffffffffffffffffffffffffffff1673ffffffffffffffffffffffffffffffffffffffff1681526020018473ffffffffffffffffffffffffffffffffffffffff1673ffffffffffffffffffffffffffffffffffffffff16815260200183815260200180602001828103825283818151815260200191508051906020019080838360005b838110156104dd5780820151818401526020810190506104c2565b50505050905090810190601f16801561050a5780820380516001836020036101000a031916815260200191505b50965050505050505060405180910390f35b610524611c48565b6040518082815260200191505060405180910390f35b61057c6004803603602081101561055057600080fd5b81019080803573ffffffffffffffffffffffffffffffffffffffff169060200190929190505050611c52565b6040518086815260200185151515158152602001841515151581526020018060200183151515158152602001828103825284818151815260200191508051906020019080838360005b838110156105e05780820151818401526020810190506105c5565b50505050905090810190601f16801561060d5780820380516001836020036101000a031916815260200191505b50965050505050505060405180910390f35b6106616004803603602081101561063557600080fd5b81019080803573ffffffffffffffffffffffffffffffffffffffff169060200190929190505050611d47565b604051808973ffffffffffffffffffffffffffffffffffffffff1673ffffffffffffffffffffffffffffffffffffffff1681526020018881526020018715151515815260200186151515158152602001851515151581526020018415151515815260200183151515158152602001821515151581526020019850505050505050505060405180910390f35b6107e56004803603606081101561070257600080fd5b81019080803573ffffffffffffffffffffffffffffffffffffffff169060200190929190803573ffffffffffffffffffffffffffffffffffffffff1690602001909291908035906020019064010000000081111561075f57600080fd5b82018360208201111561077157600080fd5b8035906020019184600183028401116401000000008311171561079357600080fd5b91908080601f016020809104026020016040519081016040528093929190818152602001838380828437600081840152601f19601f820116905080830192505050505050509192919290505050611dfd565b005b610813600480360360208110156107fd57600080fd5b8101908080359060200190929190505050611fc0565b6040518086815260200185151515158152602001841515151581526020018060200183151515158152602001828103825284818151815260200191508051906020019080838360005b8381101561087757808201518184015260208101905061085c565b50505050905090810190601f1680156108a45780820380516001836020036101000a031916815260200191505b50965050505050505060405180910390f35b6108e2600480360360208110156108cc57600080fd5b81019080803590602001909291905050506120c2565b604051808973ffffffffffffffffffffffffffffffffffffffff1673ffffffffffffffffffffffffffffffffffffffff1681526020018881526020018715151515815260200186151515158152602001851515151581526020018415151515815260200183151515158152602001821515151581526020019850505050505050505060405180910390f35b606081600460008273ffffffffffffffffffffffffffffffffffffffff1673ffffffffffffffffffffffffffffffffffffffff16815260200190815260200160002060030160009054906101000a900460ff166109c957600080fd5b60606001546040519080825280602002602001820160405280156109fc5781602001602082028038833980820191505090505b509050600080905060008090505b60015481101561110457600460008773ffffffffffffffffffffffffffffffffffffffff1673ffffffffffffffffffffffffffffffffffffffff1681526020019081526020016000206000015460078281548110610a6457fe5b90600052602060002090600302016001015411158015610b895750600460008773ffffffffffffffffffffffffffffffffffffffff1673ffffffffffffffffffffffffffffffffffffffff16815260200190815260200160002060010160019054906101000a900460ff16151560078281548110610ade57fe5b906000526020600020906003020160020160019054906101000a900460ff1615151480610b885750600460008773ffffffffffffffffffffffffffffffffffffffff1673ffffffffffffffffffffffffffffffffffffffff16815260200190815260200160002060010160009054906101000a900460ff16151560078281548110610b6557fe5b906000526020600020906003020160020160009054906101000a900460ff161515145b5b156110f75760078181548110610b9b57fe5b906000526020600020906003020160020160029054906101000a900460ff168015610cc55750600460008773ffffffffffffffffffffffffffffffffffffffff1673ffffffffffffffffffffffffffffffffffffffff1681526020019081526020016000206002016040516020018082805460018160011615610100020316600290048015610c615780601f10610c3f576101008083540402835291820191610c61565b820191906000526020600020905b815481529060010190602001808311610c4d575b50509150506040516020818303038152906040528051906020012060405160200180807f7374726169676874000000000000000000000000000000000000000000000000815250600801905060405160208183030381529060405280519060200120145b15610d5c5760078181548110610cd757fe5b906000526020600020906003020160000160009054906101000a900473ffffffffffffffffffffffffffffffffffffffff16838381518110610d1557fe5b602002602001019073ffffffffffffffffffffffffffffffffffffffff16908173ffffffffffffffffffffffffffffffffffffffff168152505081806001019250506110f6565b60078181548110610d6957fe5b906000526020600020906003020160020160039054906101000a900460ff168015610e935750600460008773ffffffffffffffffffffffffffffffffffffffff1673ffffffffffffffffffffffffffffffffffffffff1681526020019081526020016000206002016040516020018082805460018160011615610100020316600290048015610e2f5780601f10610e0d576101008083540402835291820191610e2f565b820191906000526020600020905b815481529060010190602001808311610e1b575b50509150506040516020818303038152906040528051906020012060405160200180807f6375726c79000000000000000000000000000000000000000000000000000000815250600501905060405160208183030381529060405280519060200120145b15610f2a5760078181548110610ea557fe5b906000526020600020906003020160000160009054906101000a900473ffffffffffffffffffffffffffffffffffffffff16838381518110610ee357fe5b602002602001019073ffffffffffffffffffffffffffffffffffffffff16908173ffffffffffffffffffffffffffffffffffffffff168152505081806001019250506110f5565b60078181548110610f3757fe5b906000526020600020906003020160020160049054906101000a900460ff1680156110615750600460008773ffffffffffffffffffffffffffffffffffffffff1673ffffffffffffffffffffffffffffffffffffffff1681526020019081526020016000206002016040516020018082805460018160011615610100020316600290048015610ffd5780601f10610fdb576101008083540402835291820191610ffd565b820191906000526020600020905b815481529060010190602001808311610fe9575b50509150506040516020818303038152906040528051906020012060405160200180807f7761767900000000000000000000000000000000000000000000000000000000815250600401905060405160208183030381529060405280519060200120145b156110f4576007818154811061107357fe5b906000526020600020906003020160000160009054906101000a900473ffffffffffffffffffffffffffffffffffffffff168383815181106110b157fe5b602002602001019073ffffffffffffffffffffffffffffffffffffffff16908173ffffffffffffffffffffffffffffffffffffffff168152505081806001019250505b5b5b5b8080600101915050610a0a565b50819350505050919050565b60608082600460008273ffffffffffffffffffffffffffffffffffffffff1673ffffffffffffffffffffffffffffffffffffffff16815260200190815260200160002060030160009054906101000a900460ff1661116d57600080fd5b60606002546040519080825280602002602001820160405280156111a05781602001602082028038833980820191505090505b50905060606002546040519080825280602002602001820160405280156111d65781602001602082028038833980820191505090505b509050600080905060008090505b600254811015611332578773ffffffffffffffffffffffffffffffffffffffff166008828154811061121257fe5b906000526020600020906005020160020160009054906101000a900473ffffffffffffffffffffffffffffffffffffffff1673ffffffffffffffffffffffffffffffffffffffff161415611325576008818154811061126d57fe5b906000526020600020906005020160010160009054906101000a900473ffffffffffffffffffffffffffffffffffffffff168483815181106112ab57fe5b602002602001019073ffffffffffffffffffffffffffffffffffffffff16908173ffffffffffffffffffffffffffffffffffffffff1681525050600881815481106112f257fe5b90600052602060002090600502016003015483838151811061131057fe5b60200260200101818152505081806001019250505b80806001019150506111e4565b5082829550955050505050915091565b6000600154905090565b86156116675760016000815480929190600101919050555061136c612185565b6040518061010001604052803373ffffffffffffffffffffffffffffffffffffffff1681526020018681526020018815158152602001871515815260200183151581526020018415158152602001851515815260200160011515815250905080600560003373ffffffffffffffffffffffffffffffffffffffff1673ffffffffffffffffffffffffffffffffffffffff16815260200190815260200160002060008201518160000160006101000a81548173ffffffffffffffffffffffffffffffffffffffff021916908373ffffffffffffffffffffffffffffffffffffffff1602179055506020820151816001015560408201518160020160006101000a81548160ff02191690831515021790555060608201518160020160016101000a81548160ff02191690831515021790555060808201518160020160026101000a81548160ff02191690831515021790555060a08201518160020160036101000a81548160ff02191690831515021790555060c08201518160020160046101000a81548160ff02191690831515021790555060e08201518160020160056101000a81548160ff0219169083151502179055509050506007819080600181540180825580915050906001820390600052602060002090600302016000909192909190915060008201518160000160006101000a81548173ffffffffffffffffffffffffffffffffffffffff021916908373ffffffffffffffffffffffffffffffffffffffff1602179055506020820151816001015560408201518160020160006101000a81548160ff02191690831515021790555060608201518160020160016101000a81548160ff02191690831515021790555060808201518160020160026101000a81548160ff02191690831515021790555060a08201518160020160036101000a81548160ff02191690831515021790555060c08201518160020160046101000a81548160ff02191690831515021790555060e08201518160020160056101000a81548160ff021916908315150217905550505050506118ed565b60606040518060400160405280600481526020017f77617679000000000000000000000000000000000000000000000000000000008152509050600080815480929190600101919050555082156116f1576040518060400160405280600581526020017f6375726c7900000000000000000000000000000000000000000000000000000081525090505b8115611730576040518060400160405280600881526020017f737472616967687400000000000000000000000000000000000000000000000081525090505b6117386121ec565b6040518060a001604052808781526020018915158152602001881515815260200183815260200160011515815250905080600460003373ffffffffffffffffffffffffffffffffffffffff1673ffffffffffffffffffffffffffffffffffffffff1681526020019081526020016000206000820151816000015560208201518160010160006101000a81548160ff02191690831515021790555060408201518160010160016101000a81548160ff021916908315150217905550606082015181600201908051906020019061180e929190612221565b5060808201518160030160006101000a81548160ff021916908315150217905550905050600681908060018154018082558091505090600182039060005260206000209060040201600090919290919091506000820151816000015560208201518160010160006101000a81548160ff02191690831515021790555060408201518160010160016101000a81548160ff02191690831515021790555060608201518160020190805190602001906118c6929190612221565b5060808201518160030160006101000a81548160ff02191690831515021790555050505050505b50505050505050565b600360009054906101000a900473ffffffffffffffffffffffffffffffffffffffff1673ffffffffffffffffffffffffffffffffffffffff163373ffffffffffffffffffffffffffffffffffffffff161461195057600080fd5b600360009054906101000a900473ffffffffffffffffffffffffffffffffffffffff1673ffffffffffffffffffffffffffffffffffffffff16ff5b60008054905090565b606081600560008273ffffffffffffffffffffffffffffffffffffffff1673ffffffffffffffffffffffffffffffffffffffff16815260200190815260200160002060020160059054906101000a900460ff166119f057600080fd5b6060600254604051908082528060200260200182016040528015611a235781602001602082028038833980820191505090505b509050600080905060008090505b600254811015611afa578573ffffffffffffffffffffffffffffffffffffffff1660088281548110611a5f57fe5b906000526020600020906005020160010160009054906101000a900473ffffffffffffffffffffffffffffffffffffffff1673ffffffffffffffffffffffffffffffffffffffff161415611aed5760088181548110611aba57fe5b906000526020600020906005020160000154838381518110611ad857fe5b60200260200101818152505081806001019250505b8080600101915050611a31565b50819350505050919050565b8060088381548110611b1457fe5b9060005260206000209060050201600301819055505050565b60088181548110611b3a57fe5b90600052602060002090600502016000915090508060000154908060010160009054906101000a900473ffffffffffffffffffffffffffffffffffffffff16908060020160009054906101000a900473ffffffffffffffffffffffffffffffffffffffff1690806003015490806004018054600181600116156101000203166002900480601f016020809104026020016040519081016040528092919081815260200182805460018160011615610100020316600290048015611c3e5780601f10611c1357610100808354040283529160200191611c3e565b820191906000526020600020905b815481529060010190602001808311611c2157829003601f168201915b5050505050905085565b6000600254905090565b60046020528060005260406000206000915090508060000154908060010160009054906101000a900460ff16908060010160019054906101000a900460ff1690806002018054600181600116156101000203166002900480601f016020809104026020016040519081016040528092919081815260200182805460018160011615610100020316600290048015611d2a5780601f10611cff57610100808354040283529160200191611d2a565b820191906000526020600020905b815481529060010190602001808311611d0d57829003601f168201915b5050505050908060030160009054906101000a900460ff16905085565b60056020528060005260406000206000915090508060000160009054906101000a900473ffffffffffffffffffffffffffffffffffffffff16908060010154908060020160009054906101000a900460ff16908060020160019054906101000a900460ff16908060020160029054906101000a900460ff16908060020160039054906101000a900460ff16908060020160049054906101000a900460ff16908060020160059054906101000a900460ff16905088565b81600460008273ffffffffffffffffffffffffffffffffffffffff1673ffffffffffffffffffffffffffffffffffffffff16815260200190815260200160002060030160009054906101000a900460ff16611e5757600080fd5b611e5f6122a1565b6040518060a0016040528060025481526020018673ffffffffffffffffffffffffffffffffffffffff1681526020018573ffffffffffffffffffffffffffffffffffffffff16815260200160008152602001848152509050600881908060018154018082558091505090600182039060005260206000209060050201600090919290919091506000820151816000015560208201518160010160006101000a81548173ffffffffffffffffffffffffffffffffffffffff021916908373ffffffffffffffffffffffffffffffffffffffff16021790555060408201518160020160006101000a81548173ffffffffffffffffffffffffffffffffffffffff021916908373ffffffffffffffffffffffffffffffffffffffff160217905550606082015181600301556080820151816004019080519060200190611fa3929190612221565b505050506002600081548092919060010191905055505050505050565b60068181548110611fcd57fe5b90600052602060002090600402016000915090508060000154908060010160009054906101000a900460ff16908060010160019054906101000a900460ff1690806002018054600181600116156101000203166002900480601f0160208091040260200160405190810160405280929190818152602001828054600181600116156101000203166002900480156120a55780601f1061207a576101008083540402835291602001916120a5565b820191906000526020600020905b81548152906001019060200180831161208857829003601f168201915b5050505050908060030160009054906101000a900460ff16905085565b600781815481106120cf57fe5b90600052602060002090600302016000915090508060000160009054906101000a900473ffffffffffffffffffffffffffffffffffffffff16908060010154908060020160009054906101000a900460ff16908060020160019054906101000a900460ff16908060020160029054906101000a900460ff16908060020160039054906101000a900460ff16908060020160049054906101000a900460ff16908060020160059054906101000a900460ff16905088565b604051806101000160405280600073ffffffffffffffffffffffffffffffffffffffff168152602001600081526020016000151581526020016000151581526020016000151581526020016000151581526020016000151581526020016000151581525090565b6040518060a0016040528060008152602001600015158152602001600015158152602001606081526020016000151581525090565b828054600181600116156101000203166002900490600052602060002090601f016020900481019282601f1061226257805160ff1916838001178555612290565b82800160010185558215612290579182015b8281111561228f578251825591602001919060010190612274565b5b50905061229d91906122fc565b5090565b6040518060a0016040528060008152602001600073ffffffffffffffffffffffffffffffffffffffff168152602001600073ffffffffffffffffffffffffffffffffffffffff16815260200160008152602001606081525090565b61231e91905b8082111561231a576000816000905550600101612302565b5090565b9056fea265627a7a72315820b97d621aba0cd620e27f37149186a3855bcdd30449137ae9e77897c573c579c064736f6c63430005100032",
  "source": "//SPDX-License-Identifier: UNLICENSED\npragma solidity >=0.4.0 <0.9.0;\n\ncontract Angellocks {\n\n    struct Donor {   \n        uint length;\n        bool gray;\n        bool colored;\n        string texture;\n        bool isActive;\n    }\n\n    struct Organization {\n        address org_address;\n        uint length;\n        bool gray;\n        bool colored;\n        bool straight;\n        bool curly;\n        bool wavy;\n        bool isActive;\n    }\n    \n    struct Donation{\n        uint id;\n        address org_address;\n        address donor_address;\n        uint status;\n        string date;\n    }\n\n    // address public sender = msg.sender;\n    uint private donors_length;\n    uint private orgs_length;\n    uint private donations_length;\n    address payable owner;\n    mapping(address => Donor) public donor_mapping;\n    mapping(address => Organization) public org_mapping;\n    Donor[] public donor_details;\n    Organization[] public org_details;\n    Donation[] public donation_details;\n\n\n    constructor () public {\n        owner = msg.sender;\n        donors_length = 0;\n        orgs_length = 0;\n        donations_length = 0;\n    }\n\n    //modifiers\n    modifier onlyOwner() {\n        require(msg.sender == owner);\n      _;\n    }\n\n    modifier onlyDonor(address sender) {\n        require(donor_mapping[sender].isActive);\n      _;\n    }\n    \n    modifier onlyOrganization(address sender) {\n        require(org_mapping[sender].isActive);\n      _;\n    }\n\n    modifier validateStatus(uint status) { \n        require(status == 0); \n      _; \n    } \n    \n    //Person registering can be -----> 0 - user, 1 - org\n    function register(bool _type, bool gray, bool colored,  uint length, bool wavy, bool curly, bool straight) public {\n        if(_type){\n            orgs_length++;\n            Organization memory newOrg = Organization(msg.sender, length, gray, colored, straight, curly, wavy, true);\n            org_mapping[msg.sender] = newOrg;\n            org_details.push(newOrg);\n        }\n        else{\n            string memory texture = \"wavy\";\n            donors_length++;\n            if(curly){\n                texture = \"curly\";\n            }\n            if(straight){\n                texture = \"straight\";\n            }\n            Donor memory newDonor = Donor(length, gray, colored, texture, true);\n            donor_mapping[msg.sender] = newDonor;\n            donor_details.push(newDonor);\n        }\n        \n    }\n\n    function match_org(address donor_id) public onlyDonor(donor_id) view returns (address [] memory){\n        address[] memory result = new address[](orgs_length);\n        uint count = 0;\n        for(uint i = 0; i < orgs_length; i++){\n            if(org_details[i].length <= donor_mapping[donor_id].length\n            && (org_details[i].colored == donor_mapping[donor_id].colored \n            || org_details[i].gray == donor_mapping[donor_id].gray)){\n                if(org_details[i].straight && keccak256(abi.encodePacked('straight')) == keccak256(abi.encodePacked(donor_mapping[donor_id].texture))) {\n                    result[count] = org_details[i].org_address;\n                    count++;\n\n                }\n                else if(org_details[i].curly && keccak256(abi.encodePacked('curly')) == keccak256(abi.encodePacked(donor_mapping[donor_id].texture))) {\n                    result[count] = org_details[i].org_address;\n                    count++;\n\n                }\n                else if(org_details[i].wavy && keccak256(abi.encodePacked('wavy')) == keccak256(abi.encodePacked(donor_mapping[donor_id].texture))) {\n                    result[count] = org_details[i].org_address;\n                    count++;\n\n                }\n            }\n            \n        }\n        return result;\n    }\n\n    function donate(address org_address, address donor_address, string memory date) public onlyDonor(donor_address) {\n        Donation memory new_donation = Donation(donations_length, org_address, donor_address, 0, date);\n        donation_details.push(new_donation);\n        donations_length++;\n\n    } \n\n    //Donations statuses are --->  0 - Donated, 1 - Accepted, 2 - Rejected\n    function view_donation_status(address donor_id) public onlyDonor(donor_id) view returns(address [] memory, uint [] memory) {\n        address [] memory addresses = new address[](donations_length);\n        uint [] memory statuses = new uint[](donations_length);\n        uint count = 0;\n        for(uint i=0; i<donations_length; i++){\n            if(donation_details[i].donor_address == donor_id){\n                addresses[count] = donation_details[i].org_address;\n                statuses[count] = donation_details[i].status;\n                count++;\n            }\n        }\n        return (addresses, statuses);\n    }\n\n    function view_donations(address org_id) public onlyOrganization(org_id) view returns(uint [] memory){\n        uint [] memory ids = new uint[](donations_length);\n        uint count = 0;\n        for(uint i=0; i<donations_length; i++){\n            if(donation_details[i].org_address == org_id){\n                ids[count] = donation_details[i].id;\n                count++;\n            }\n        }\n        return (ids);\n    }\n\n    function update_donation_status(uint id, uint status) public {\n        donation_details[id].status = status;\n    }\n\n    function getDonorCount() view public returns (uint) { \n        return donors_length;\n    } \n    function getOrgCount() view public returns (uint) { \n        return orgs_length;\n    } \n    function getDonationsCount() view public returns (uint) { \n        return donations_length;\n    } \n    function closeContract() public onlyOwner{\n        selfdestruct(owner);\n    }\n    \n    /*constructor (uint numProposals) public  {\n        chairperson = msg.sender;\n        voters[chairperson].weight = 2; // weight 2 for testing purposes\n        //proposals.length = numProposals; -- before 0.6.0\n        for (uint prop = 0; prop < numProposals; prop ++)\n            proposals.push(Proposal(0));\n        state = Phase.Regs;\n    }\n    \n\n    function reqWinner() public validPhase(Phase.Done) view returns (uint winningProposal) {\n       \n        uint winningVoteCount = 0;\n        for (uint prop = 0; prop < proposals.length; prop++) \n            if (proposals[prop].voteCount > winningVoteCount) {\n                winningVoteCount = proposals[prop].voteCount;\n                winningProposal = prop;\n            }\n       assert(winningVoteCount>=3);\n    }*/\n}\n",
  "sourcePath": "/Users/nikitadesai/Documents/UB/Final Semester/Blockchain/Project/git-angel-locks/angellocks-contract/contracts/Angellocks.sol",
  "compiler": {
    "name": "solc",
    "version": "0.5.16+commit.9c3226ce.Emscripten.clang"
  },
  "schemaVersion": "3.4.10",
  "updatedAt": "2022-11-13T19:26:53.302Z",
  "networkType": "ethereum",
  "devdoc": {
    "methods": {}
  },
  "userdoc": {
    "methods": {}
  }
}